:1000000033C000004CC000004AC0000048C00000DF
:1000100046C0000044C0000042C000006EC20000A4
:1000200091C200003CC000003AC0000038C000008F
:1000300036C0000034C0000006C2000029C2000023
:100040002EC000002CC000002AC0000028C0000004
:1000500026C0000024C0000022C0000020C0000014
:100060001EC000001CC0000011241FBECFEFD8E04E
:10007000DEBFCDBF11E0A0E0B1E0ECE3FEE002C0E6
:1000800005900D92A03BB107D9F722E0A0EBB1E0BB
:1000900001C01D92A830B207E1F779D2CDC6B0CF2A
:1000A00087E68093C40088E18093C1000895CF93D0
:1000B000C82F873061F4209106023091070247E093
:1000C00050E061E070E08EE091E088D30BC08A30B0
:1000D00011F48DE0ECDFE0ECF0E0808185FFFDCFF6
:1000E000C093C60080E090E0CF9108956F927F9218
:1000F0008F929F92AF92BF92CF92DF92EF92FF9238
:100100000F931F93CF93DF93209100023091010250
:10011000232B09F0CCC08C010F2EF0EB8F2EF1E0D9
:100120009F2EF02DC0ECD0E00F2EF6ECCF2ED12C70
:10013000F02D54010F2EFFEA6F2EF1E07F2EF02DEF
:1001400088818823ECF7888184FDC4C0888183FD81
:10015000C4C0F60180818D3011F08A3061F48AE0EC
:10016000F4018083B801A3DF80EB91E0909301025A
:10017000809300029CC0893039F090EE980F9F3533
:1001800020F0803AA8F001C080E2FFEF8F16F1E086
:100190009F0621F4B80187E08ADFD2CF74019FEF78
:1001A000E91AF90AF4018083B80181DF4701C8CF59
:1001B0008231B9F130F4833009F492C08830E9F02B
:1001C000BFCF873129F08F37C1F0853179F0B8CFB3
:1001D000F0EB8F16F1E09F0609F008F4B1CFF401BF
:1001E00031978081803209F04AC0AACF80EB88160F
:1001F00081E0980609F070F5A3CF90EB891691E0A5
:10020000990609F008F49CCFB80188E050DFB801E6
:1002100080E24DDFB80188E04ADFE1E08E1A910804
:100220008FCFB8018DE043DFF0EB8F16F1E09F0632
:1002300009F008F485CF0F2EF0EBEF2EF1E0FF2E42
:10024000F02DB801F70181917F0131DF8E149F04F9
:10025000C1F776CFB80188E02ADFB80180E227DF56
:10026000B80188E024DFF1E08F1A910880EB88164E
:1002700081E0980679F7F30131964F0161CF74015F
:10028000F1E0EF1AF108B80188E011DFB80180E26F
:100290000EDFB80188E00BDF4701AE14BF0409F49C
:1002A0004FCFF70182917F01803269F749CFE0910A
:1002B0000002F0910102CF01019690930102809318
:1002C000000280818A3021F4109201021092000213
:1002D00090E008C08EEF9FEF05C08FEF9FEF02C048
:1002E0008FEF9FEFDF91CF911F910F91FF90EF90D4
:1002F000DF90CF90BF90AF909F908F907F906F9046
:10030000089595B184B180628F7784B9892F806A0E
:1003100085B90895ECE7F0E0808180648083EAE7A6
:10032000F0E08081876A80830895ECE7F0E08081C7
:10033000807F8083089584B5836084BD85B58B609C
:1003400085BD8FE787BDEEE6F0E080818660808323
:1003500067B570E080E090E052D120E030E040E00E
:100360005FE3B1D11ED168BD0895E0EBF0E080817C
:1003700083608083E1EBF0E080818B608083E3EB3E
:10038000F0E08FE78083A0E7B0E08C9186608C93EB
:10039000608170E080E090E032D126E636E646EEFD
:1003A0005EE391D1F9D06093B4000895AADFBDDF78
:1003B000B1DF76DEC0DFD9DF7894E2E0F2E080E002
:1003C00091E09583848391838083938382838FEFED
:1003D0008AB984B986E191E046C2089581309105D9
:1003E00071F01CF4009741F013C08230910551F078
:1003F0008330910551F00CC05C9A5F9A08955C9A25
:10040000289A08955A9A289A08955A9A5F9A0895B0
:100410009F938F938CE791E09F938F9311D20F90CE
:100420000F900F900F9008952BB181709927880F2E
:10043000991F82959295907F9827807F98272F7D8E
:10044000822B8BB908951F920F920FB60F92112431
:100450002F933F934F935F936F937F938F939F93CC
:10046000AF93BF93EF93FF9380E090E0DDDFFF91C8
:10047000EF91BF91AF919F918F917F916F915F911C
:100480004F913F912F910F900FBE0F901F90189595
:100490001F920F920FB60F9211242F933F934F93F9
:1004A0005F936F937F938F939F93AF93BF93EF93DC
:1004B000FF9381E090E0B8DFFF91EF91BF91AF91A2
:1004C0009F918F917F916F915F914F913F912F916C
:1004D0000F900FBE0F901F9018952BB18170992728
:1004E0000024969587950794969587950794982F5D
:1004F000802D2F7B822B8BB908951F920F920FB600
:100500000F9211242F933F934F935F936F937F9399
:100510008F939F93AF93BF93EF93FF9380E090E00F
:10052000DCDFFF91EF91BF91AF919F918F917F9110
:100530006F915F914F913F912F910F900FBE0F9050
:100540001F9018951F920F920FB60F9211242F93A0
:100550003F934F935F936F937F938F939F93AF934B
:10056000BF93EF93FF9381E090E0B7DFFF91EF91AE
:10057000BF91AF919F918F917F916F915F914F91BB
:100580003F912F910F900FBE0F901F9018950EDF87
:1005900080E090E023DFFFCF04D06894B1118DC0DC
:1005A000089570D088F09F5790F0B92F9927B751D0
:1005B000A0F0D1F0660F771F881F991F1AF0BA9527
:1005C000C9F712C0B13081F077D0B1E0089574C09E
:1005D000672F782F8827B85F39F0B93FCCF386951D
:1005E00077956795B395D9F73EF49095809570957A
:1005F00061957F4F8F4F9F4F0895E89409C097FBF7
:100600003EF490958095709561957F4F8F4F9F4FE9
:100610009923A9F0F92F96E9BB279395F69587952D
:1006200077956795B795F111F8CFFAF4BB0F11F4F0
:1006300060FF1BC06F5F7F4F8F4F9F4F16C0882397
:1006400011F096E911C0772321F09EE8872F762FCD
:1006500005C0662371F096E8862F70E060E02AF00E
:100660009A95660F771F881FDAF7880F96958795FA
:1006700097F9089557FD9058440F551F59F05F3F63
:1006800071F04795880F97FB991F61F09F3F79F0B4
:1006900087950895121613061406551FF2CF469536
:1006A000F1DF08C0161617061806991FF1CF8695B8
:1006B0007105610508940895E894BB27662777279C
:1006C000CB0197F908950BD078C069D028F06ED08F
:1006D00018F0952309F05AC05FC01124EECFCADF8D
:1006E000A0F3959FD1F3950F50E0551F629FF00145
:1006F000729FBB27F00DB11D639FAA27F00DB11D9E
:10070000AA1F649F6627B00DA11D661F829F222726
:10071000B00DA11D621F739FB00DA11D621F839FAD
:10072000A00D611D221F749F3327A00D611D231F83
:10073000849F600D211D822F762F6A2F11249F57D1
:1007400050408AF0E1F088234AF0EE0FFF1FBB1FF4
:10075000661F771F881F91505040A9F79E3F510593
:1007600070F014C0AACF5F3FECF3983EDCF386959F
:1007700077956795B795F795E7959F5FC1F7FE2B3E
:10078000880F911D9695879597F9089597F99F671A
:1007900080E870E060E008959FEF80EC0895002409
:1007A0000A941616170618060906089500240A94D6
:1007B00012161306140605060895092E0394000C5C
:1007C00011F4882352F0BB0F40F4BF2B11F460FFEB
:1007D00004C06F5F7F4F8F4F9F4F0895A0E0B0E040
:1007E000E3EFF3E0F8C25B014A017901D901139606
:1007F0002C9121FF1DC0C0E0D0E0C815D905D9F06B
:100800008C016C01CA0CDB1CC8010C151D0571F0B4
:100810000F5F1F4FD7011896ED91FC911997B70103
:10082000DC018C910995892B79F305C02196E5CFE0
:1008300080E090E001C0CE01CDB7DEB7ECE0E7C2CA
:10084000A0E0B0E0E5E2F4E0D0C2AE014B5F5F4F64
:10085000FA0161917191AF018091040290910502BA
:1008600032D0E2E0DEC20F931F93CF93DF93E0918B
:100870000402F0910502238121FF1BC08C01D0E00E
:10088000C0E0F80181918F0160910402709105022E
:10089000DB011896ED91FC911997882331F00995A9
:1008A000892B79F3DFEFCFEFECCF8AE00995892B25
:1008B00019F08FEF9FEF02C08D2F9C2FDF91CF910A
:1008C0001F910F910895ABE0B0E0E8E6F4E07DC23F
:1008D0006C017B018A01FC0117821682838181FFF2
:1008E000BFC1CE0101963C01F6019381F70193FD52
:1008F000859193FF81917F01882309F4ADC18532F1
:1009000039F493FD859193FF81917F01853221F424
:10091000B60190E0C0D1E8CF912C212C312CFFE121
:10092000F315D8F08B3279F038F4803279F08332D5
:10093000A1F4232D20611DC08D3261F0803369F454
:10094000232D216016C0832D8260382EE32DE460B4
:100950003E2E2AC0F32DF8601DC037FC2DC020EDBF
:10096000280F2A3040F08E32B9F436FC75C1232DA1
:100970002064322E19C036FE06C08AE0989E200DF3
:100980001124922E11C0EAE02E9E200D1124222E59
:10099000F32DF0623F2E08C08C3621F4832D806841
:1009A000382E02C0883641F4F70193FD859193FFFC
:1009B00081917F018111B3CF982F9F7D9554933002
:1009C00028F40C5F1F4F9FE399830DC0833631F0ED
:1009D000833771F0833509F055C020C0F80180815C
:1009E00089830E5F1F4F88248394912C530112C07A
:1009F0002801F2E04F0E511CF801A080B18036FEB4
:100A000003C0692D70E002C06FEF7FEFC50138D1E0
:100A10004C018201F32DFF773F2E15C0280122E003
:100A2000420E511CF801A080B18036FE03C0692D32
:100A300070E002C06FEF7FEFC50117D14C01F32DBD
:100A4000F0683F2E820133FC19C0822D90E0881699
:100A50009906A0F4B60180E290E01DD12A94F5CF6A
:100A6000F50137FC859137FE81915F01B60190E079
:100A700012D121102A9421E0821A91088114910444
:100A800079F7E1C0843611F0893639F5F80137FE7F
:100A900007C060817181828193810C5F1F4F08C004
:100AA00060817181072E000C880B990B0E5F1F4F20
:100AB000F32DFF763F2E97FF09C090958095709596
:100AC00061957F4F8F4F9F4FF0683F2E2AE030E0B7
:100AD000A3011DD1882E861844C0853731F4232DFB
:100AE0002F7EB22E2AE030E025C0932D997FB92EBB
:100AF0008F36C1F018F4883579F0AEC0803719F020
:100B0000883721F0A9C0E92FE061BE2EB4FE0DC0E8
:100B1000FB2DF460BF2E09C034FE0AC0292F2660C9
:100B2000B22E06C028E030E005C020E130E002C06F
:100B300020E132E0F801B7FE07C060817181828157
:100B400093810C5F1F4F06C06081718180E090E04F
:100B50000E5F1F4FA301DBD0882E8618FB2DFF7779
:100B60003F2E36FE0DC0232D2E7FA22E891458F461
:100B700034FE0BC032FC09C0832D8E7EA82E05C02A
:100B8000B82CA32C03C0B82C01C0B92CA4FE0FC0F4
:100B9000FE01E80DF11D8081803321F49A2D997EAC
:100BA000A92E09C0A2FE06C0B394B39404C08A2D36
:100BB000867809F0B394A3FC10C0A0FE06C0B2145E
:100BC00080F4280C922C9B180DC0B21458F4B60176
:100BD00080E290E060D0B394F8CFB21418F42B18F0
:100BE00002C0982C212CA4FE0FC0B60180E390E037
:100BF00052D0A2FE16C0A1FC03C088E790E002C05C
:100C000088E590E0B6010CC08A2D867851F0A1FEEF
:100C100002C08BE201C080E2A7FC8DE2B60190E049
:100C20003AD0891430F4B60180E390E034D09A943D
:100C3000F8CF8A94F301E80DF11D8081B60190E0B0
:100C40002AD08110F6CF222009F44ECEB60180E2E0
:100C500090E021D02A94F7CFF6018681978102C0D7
:100C60008FEF9FEF2B96E2E1CCC0FC010590615025
:100C700070400110D8F7809590958E0F9F1F0895B2
:100C8000FC016150704001900110D8F7809590955B
:100C90008E0F9F1F08950F931F93CF93DF93FB0138
:100CA000238121FD03C08FEF9FEF2CC022FF16C0D0
:100CB00046815781248135814217530744F4A0812E
:100CC000B1819D012F5F3F4F318320838C9326811B
:100CD00037812F5F3F4F3783268314C08B01EC0190
:100CE000FB010084F185E02D0995892BE1F6D801FF
:100CF00016968D919C911797019617969C938E93BB
:100D00001697CE01DF91CF911F910F910895FA01AF
:100D1000AA27283051F1203181F1E8946F936E7F3A
:100D20006E5F7F4F8F4F9F4FAF4FB1E03ED0B4E02B
:100D30003CD0670F781F891F9A1FA11D680F791F6C
:100D40008A1F911DA11D6A0F711D811D911DA11D7D
:100D500020D009F468943F912AE0269F112430198D
:100D6000305D3193DEF6CF010895462F4770405D28
:100D70004193B3E00FD0C9F7F6CF462F4F70405DD7
:100D80004A3318F0495D31FD4052419302D0A9F732
:100D9000EACFB4E0A6959795879577956795BA952C
:100DA000C9F700976105710508959B01AC010A2EF2
:100DB00006945795479537952795BA95C9F7620FC9
:100DC000731F841F951FA01D08952F923F924F926D
:100DD0005F926F927F928F929F92AF92BF92CF92CB
:100DE000DF92EF92FF920F931F93CF93DF93CDB7D4
:100DF000DEB7CA1BDB0B0FB6F894DEBF0FBECDBF4C
:100E000009942A88398848885F846E847D848C841C
:100E10009B84AA84B984C884DF80EE80FD800C8125
:100E20001B81AA81B981CE0FD11D0FB6F894DEBF08
:0C0E30000FBECDBFED010895F894FFCF78
:100E3C0000000003000000005700760000002A723A
:100E4C00696E672A0A0048656C6C6F21200A004C99
:100E5C006566742073656E736F723A202564200A80
:100E6C000043656E7465722073656E736F723A2001
:100E7C002564200A0052696768742073656E736F6D
:100E8C00723A202564200A004552524F523A2053A0
:100E9C0074617465204944202564206E6F7420723F
:100EAC0065636F676E697A6564200A004552524F1C
:100EBC00523A20496E76616C6964204D6F746F7282
:100ECC00204D6F64652025642E20486F772064695F
:100EDC006420796F7520646F20746869732E0A0022
:00000001FF
